{
  "contractName": "Beneficiarios",
  "abi": [
    {
      "anonymous": false,
      "inputs": [
        {
          "indexed": false,
          "internalType": "string",
          "name": "msgs",
          "type": "string"
        }
      ],
      "name": "Message",
      "type": "event"
    },
    {
      "inputs": [],
      "name": "totalComercios",
      "outputs": [
        {
          "internalType": "uint256",
          "name": "",
          "type": "uint256"
        }
      ],
      "stateMutability": "view",
      "type": "function",
      "constant": true
    },
    {
      "inputs": [],
      "name": "beneficiario",
      "outputs": [],
      "stateMutability": "nonpayable",
      "type": "function"
    },
    {
      "inputs": [
        {
          "internalType": "string",
          "name": "_nombreB",
          "type": "string"
        },
        {
          "internalType": "string",
          "name": "_documentoB",
          "type": "string"
        },
        {
          "internalType": "string",
          "name": "_departamentoB",
          "type": "string"
        },
        {
          "internalType": "string",
          "name": "_direccionB",
          "type": "string"
        },
        {
          "internalType": "string",
          "name": "_telefonoB",
          "type": "string"
        },
        {
          "internalType": "address",
          "name": "_beneficiarioAddress",
          "type": "address"
        }
      ],
      "name": "crearBeneficiario",
      "outputs": [],
      "stateMutability": "nonpayable",
      "type": "function"
    },
    {
      "inputs": [],
      "name": "myInfo",
      "outputs": [
        {
          "internalType": "string",
          "name": "",
          "type": "string"
        },
        {
          "internalType": "string",
          "name": "",
          "type": "string"
        },
        {
          "internalType": "string",
          "name": "",
          "type": "string"
        },
        {
          "internalType": "string",
          "name": "",
          "type": "string"
        },
        {
          "internalType": "string",
          "name": "",
          "type": "string"
        },
        {
          "internalType": "address",
          "name": "",
          "type": "address"
        }
      ],
      "stateMutability": "view",
      "type": "function",
      "constant": true
    },
    {
      "inputs": [
        {
          "internalType": "address",
          "name": "_beneficiarioAddress",
          "type": "address"
        }
      ],
      "name": "existBeneficiario",
      "outputs": [
        {
          "internalType": "string",
          "name": "_nombreB",
          "type": "string"
        },
        {
          "internalType": "string",
          "name": "_documentoB",
          "type": "string"
        }
      ],
      "stateMutability": "view",
      "type": "function",
      "constant": true
    }
  ],
  "bytecode": "0x608060405234801561001057600080fd5b506110cc806100206000396000f3fe608060405234801561001057600080fd5b50600436106100575760003560e01c806343fd703f1461005c57806385b31d7b14610066578063b4b36892146102cc578063bd513442146102ea578063ee024a1a14610413575b600080fd5b61006461074a565b005b61006e61078d565b6040518080602001806020018060200180602001806020018773ffffffffffffffffffffffffffffffffffffffff1673ffffffffffffffffffffffffffffffffffffffff16815260200186810386528c818151815260200191508051906020019080838360005b838110156100f05780820151818401526020810190506100d5565b50505050905090810190601f16801561011d5780820380516001836020036101000a031916815260200191505b5086810385528b818151815260200191508051906020019080838360005b8381101561015657808201518184015260208101905061013b565b50505050905090810190601f1680156101835780820380516001836020036101000a031916815260200191505b5086810384528a818151815260200191508051906020019080838360005b838110156101bc5780820151818401526020810190506101a1565b50505050905090810190601f1680156101e95780820380516001836020036101000a031916815260200191505b50868103835289818151815260200191508051906020019080838360005b83811015610222578082015181840152602081019050610207565b50505050905090810190601f16801561024f5780820380516001836020036101000a031916815260200191505b50868103825288818151815260200191508051906020019080838360005b8381101561028857808201518184015260208101905061026d565b50505050905090810190601f1680156102b55780820380516001836020036101000a031916815260200191505b509b50505050505050505050505060405180910390f35b6102d4610c64565b6040518082815260200191505060405180910390f35b61032c6004803603602081101561030057600080fd5b81019080803573ffffffffffffffffffffffffffffffffffffffff169060200190929190505050610c6a565b604051808060200180602001838103835285818151815260200191508051906020019080838360005b83811015610370578082015181840152602081019050610355565b50505050905090810190601f16801561039d5780820380516001836020036101000a031916815260200191505b50838103825284818151815260200191508051906020019080838360005b838110156103d65780820151818401526020810190506103bb565b50505050905090810190601f1680156104035780820380516001836020036101000a031916815260200191505b5094505050505060405180910390f35b610748600480360360c081101561042957600080fd5b810190808035906020019064010000000081111561044657600080fd5b82018360208201111561045857600080fd5b8035906020019184600183028401116401000000008311171561047a57600080fd5b91908080601f016020809104026020016040519081016040528093929190818152602001838380828437600081840152601f19601f820116905080830192505050505050509192919290803590602001906401000000008111156104dd57600080fd5b8201836020820111156104ef57600080fd5b8035906020019184600183028401116401000000008311171561051157600080fd5b91908080601f016020809104026020016040519081016040528093929190818152602001838380828437600081840152601f19601f8201169050808301925050505050505091929192908035906020019064010000000081111561057457600080fd5b82018360208201111561058657600080fd5b803590602001918460018302840111640100000000831117156105a857600080fd5b91908080601f016020809104026020016040519081016040528093929190818152602001838380828437600081840152601f19601f8201169050808301925050505050505091929192908035906020019064010000000081111561060b57600080fd5b82018360208201111561061d57600080fd5b8035906020019184600183028401116401000000008311171561063f57600080fd5b91908080601f016020809104026020016040519081016040528093929190818152602001838380828437600081840152601f19601f820116905080830192505050505050509192919290803590602001906401000000008111156106a257600080fd5b8201836020820111156106b457600080fd5b803590602001918460018302840111640100000000831117156106d657600080fd5b91908080601f016020809104026020016040519081016040528093929190818152602001838380828437600081840152601f19601f820116905080830192505050505050509192919290803573ffffffffffffffffffffffffffffffffffffffff169060200190929190505050610e32565b005b33600160006101000a81548173ffffffffffffffffffffffffffffffffffffffff021916908373ffffffffffffffffffffffffffffffffffffffff160217905550565b60608060608060606000600260003373ffffffffffffffffffffffffffffffffffffffff1673ffffffffffffffffffffffffffffffffffffffff168152602001908152602001600020600001600260003373ffffffffffffffffffffffffffffffffffffffff1673ffffffffffffffffffffffffffffffffffffffff168152602001908152602001600020600101600260003373ffffffffffffffffffffffffffffffffffffffff1673ffffffffffffffffffffffffffffffffffffffff168152602001908152602001600020600201600260003373ffffffffffffffffffffffffffffffffffffffff1673ffffffffffffffffffffffffffffffffffffffff168152602001908152602001600020600301600260003373ffffffffffffffffffffffffffffffffffffffff1673ffffffffffffffffffffffffffffffffffffffff168152602001908152602001600020600401600260003373ffffffffffffffffffffffffffffffffffffffff1673ffffffffffffffffffffffffffffffffffffffff16815260200190815260200160002060050160009054906101000a900473ffffffffffffffffffffffffffffffffffffffff16858054600181600116156101000203166002900480601f0160208091040260200160405190810160405280929190818152602001828054600181600116156101000203166002900480156109d95780601f106109ae576101008083540402835291602001916109d9565b820191906000526020600020905b8154815290600101906020018083116109bc57829003601f168201915b50505050509550848054600181600116156101000203166002900480601f016020809104026020016040519081016040528092919081815260200182805460018160011615610100020316600290048015610a755780601f10610a4a57610100808354040283529160200191610a75565b820191906000526020600020905b815481529060010190602001808311610a5857829003601f168201915b50505050509450838054600181600116156101000203166002900480601f016020809104026020016040519081016040528092919081815260200182805460018160011615610100020316600290048015610b115780601f10610ae657610100808354040283529160200191610b11565b820191906000526020600020905b815481529060010190602001808311610af457829003601f168201915b50505050509350828054600181600116156101000203166002900480601f016020809104026020016040519081016040528092919081815260200182805460018160011615610100020316600290048015610bad5780601f10610b8257610100808354040283529160200191610bad565b820191906000526020600020905b815481529060010190602001808311610b9057829003601f168201915b50505050509250818054600181600116156101000203166002900480601f016020809104026020016040519081016040528092919081815260200182805460018160011615610100020316600290048015610c495780601f10610c1e57610100808354040283529160200191610c49565b820191906000526020600020905b815481529060010190602001808311610c2c57829003601f168201915b50505050509150955095509550955095509550909192939495565b60005481565b606080600260008473ffffffffffffffffffffffffffffffffffffffff1673ffffffffffffffffffffffffffffffffffffffff168152602001908152602001600020600001600260008573ffffffffffffffffffffffffffffffffffffffff1673ffffffffffffffffffffffffffffffffffffffff168152602001908152602001600020600101818054600181600116156101000203166002900480601f016020809104026020016040519081016040528092919081815260200182805460018160011615610100020316600290048015610d865780601f10610d5b57610100808354040283529160200191610d86565b820191906000526020600020905b815481529060010190602001808311610d6957829003601f168201915b50505050509150808054600181600116156101000203166002900480601f016020809104026020016040519081016040528092919081815260200182805460018160011615610100020316600290048015610e225780601f10610df757610100808354040283529160200191610e22565b820191906000526020600020905b815481529060010190602001808311610e0557829003601f168201915b5050505050905091509150915091565b600160009054906101000a900473ffffffffffffffffffffffffffffffffffffffff1673ffffffffffffffffffffffffffffffffffffffff163373ffffffffffffffffffffffffffffffffffffffff1614610e8c57600080fd5b6040518060c001604052808781526020018681526020018581526020018481526020018381526020018273ffffffffffffffffffffffffffffffffffffffff16815250600260008373ffffffffffffffffffffffffffffffffffffffff1673ffffffffffffffffffffffffffffffffffffffff1681526020019081526020016000206000820151816000019080519060200190610f2a929190610ff1565b506020820151816001019080519060200190610f47929190610ff1565b506040820151816002019080519060200190610f64929190610ff1565b506060820151816003019080519060200190610f81929190610ff1565b506080820151816004019080519060200190610f9e929190610ff1565b5060a08201518160050160006101000a81548173ffffffffffffffffffffffffffffffffffffffff021916908373ffffffffffffffffffffffffffffffffffffffff160217905550905050505050505050565b828054600181600116156101000203166002900490600052602060002090601f016020900481019282601f1061103257805160ff1916838001178555611060565b82800160010185558215611060579182015b8281111561105f578251825591602001919060010190611044565b5b50905061106d9190611071565b5090565b61109391905b8082111561108f576000816000905550600101611077565b5090565b9056fea264697066735822122075fd007ade18fe2035ec80c0009e5e65146644aec05af654a22d3bc17ef85ac564736f6c63430006020033",
  "source": "//Version de Solidity\npragma solidity >=0.4.25 <0.7.0;\n\n//Import de contratos openzeppelin\n//import \"@openzeppelin/contracts/access/Ownable.sol\";\n\n//Declaracion del contrato\ncontract Beneficiarios {\n\n    //definicio de los datos\n    struct Beneficiario{\n        \n            string nombreB;\n            string documentoB;\n            string departamentoB;\n            string direccionB;\n            string telefonoB;\n            address beneficiarioAddress;\n    }\n\n    uint256 public totalComercios;\n\n    event Message(string msgs);\n\n    address owner;\n\n    function beneficiario() public{\n        owner = msg.sender;\n    }\n    \n    modifier onlyOwner() {\n        require(msg.sender == owner);\n        _;\n    }\n    mapping (address => Beneficiario) beneficiarios;\n\n    //funcion de Crear Beneficiario\n    function crearBeneficiario(\n        string memory _nombreB,\n        string memory _documentoB, \n        string memory _departamentoB, \n        string memory _direccionB, \n        string memory _telefonoB, \n        address _beneficiarioAddress) \n        onlyOwner public{\n\n            beneficiarios[_beneficiarioAddress] = Beneficiario(\n            _nombreB,\n            _documentoB,\n            _departamentoB,\n            _direccionB,\n            _telefonoB,\n            _beneficiarioAddress);\n         }\n\n    //Funcion de Obtener informacion Beneficiario\n    function myInfo() public view returns (string memory, string memory, string memory, string memory, string memory, address) {\n            return (\n            beneficiarios[msg.sender].nombreB,\n            beneficiarios[msg.sender].documentoB,\n            beneficiarios[msg.sender].departamentoB,\n            beneficiarios[msg.sender].direccionB,\n            beneficiarios[msg.sender].telefonoB,\n            beneficiarios[msg.sender].beneficiarioAddress);\n        }\n    \n    \n    //Funcion de Consultar Beneficiario\n    function existBeneficiario(address _beneficiarioAddress) public view returns(\n        string memory _nombreB, \n        string memory _documentoB)\n        {\n            return(\n                beneficiarios[_beneficiarioAddress].nombreB,\n                beneficiarios[_beneficiarioAddress].documentoB);\n        }\n\n}",
  "sourcePath": "/Users/quennito/Documents/BlockChain/TSU/contracts/Beneficiarios.sol",
  "compiler": {
    "name": "solc",
    "version": "0.6.2+commit.bacdbe57.Emscripten.clang"
  },
  "schemaVersion": "3.3.1",
  "updatedAt": "2020-11-04T03:39:14.411Z",
  "networkType": "ethereum",
  "devdoc": {
    "methods": {}
  },
  "userdoc": {
    "methods": {}
  }
}