{
  "contractName": "Comercios",
  "abi": [
    {
      "anonymous": false,
      "inputs": [
        {
          "indexed": false,
          "internalType": "string",
          "name": "msgs",
          "type": "string"
        }
      ],
      "name": "Message",
      "type": "event"
    },
    {
      "inputs": [],
      "name": "totalComercios",
      "outputs": [
        {
          "internalType": "uint256",
          "name": "",
          "type": "uint256"
        }
      ],
      "stateMutability": "view",
      "type": "function",
      "constant": true
    },
    {
      "inputs": [],
      "name": "comercio",
      "outputs": [],
      "stateMutability": "nonpayable",
      "type": "function"
    },
    {
      "inputs": [
        {
          "internalType": "string",
          "name": "_nombre",
          "type": "string"
        },
        {
          "internalType": "string",
          "name": "_rut",
          "type": "string"
        },
        {
          "internalType": "string",
          "name": "_departamento",
          "type": "string"
        },
        {
          "internalType": "string",
          "name": "_direccion",
          "type": "string"
        },
        {
          "internalType": "string",
          "name": "_telefono",
          "type": "string"
        },
        {
          "internalType": "uint256",
          "name": "_numcuenta",
          "type": "uint256"
        },
        {
          "internalType": "address",
          "name": "_comercioAddress",
          "type": "address"
        }
      ],
      "name": "crearComercio",
      "outputs": [],
      "stateMutability": "nonpayable",
      "type": "function"
    },
    {
      "inputs": [],
      "name": "myInfo",
      "outputs": [
        {
          "internalType": "string",
          "name": "",
          "type": "string"
        },
        {
          "internalType": "string",
          "name": "",
          "type": "string"
        },
        {
          "internalType": "string",
          "name": "",
          "type": "string"
        },
        {
          "internalType": "string",
          "name": "",
          "type": "string"
        },
        {
          "internalType": "string",
          "name": "",
          "type": "string"
        },
        {
          "internalType": "uint256",
          "name": "",
          "type": "uint256"
        },
        {
          "internalType": "address",
          "name": "",
          "type": "address"
        }
      ],
      "stateMutability": "view",
      "type": "function",
      "constant": true
    },
    {
      "inputs": [
        {
          "internalType": "address",
          "name": "_comercioaddres",
          "type": "address"
        }
      ],
      "name": "existComercio",
      "outputs": [
        {
          "internalType": "string",
          "name": "_nombre",
          "type": "string"
        },
        {
          "internalType": "string",
          "name": "_rut",
          "type": "string"
        }
      ],
      "stateMutability": "view",
      "type": "function",
      "constant": true
    }
  ],
  "bytecode": "0x608060405234801561001057600080fd5b50611135806100206000396000f3fe608060405234801561001057600080fd5b50600436106100575760003560e01c8063458e91981461005c5780634894a1a91461006657806358084ac91461018f57806385b31d7b146104d0578063b4b368921461073d575b600080fd5b61006461075b565b005b6100a86004803603602081101561007c57600080fd5b81019080803573ffffffffffffffffffffffffffffffffffffffff16906020019092919050505061079e565b604051808060200180602001838103835285818151815260200191508051906020019080838360005b838110156100ec5780820151818401526020810190506100d1565b50505050905090810190601f1680156101195780820380516001836020036101000a031916815260200191505b50838103825284818151815260200191508051906020019080838360005b83811015610152578082015181840152602081019050610137565b50505050905090810190601f16801561017f5780820380516001836020036101000a031916815260200191505b5094505050505060405180910390f35b6104ce600480360360e08110156101a557600080fd5b81019080803590602001906401000000008111156101c257600080fd5b8201836020820111156101d457600080fd5b803590602001918460018302840111640100000000831117156101f657600080fd5b91908080601f016020809104026020016040519081016040528093929190818152602001838380828437600081840152601f19601f8201169050808301925050505050505091929192908035906020019064010000000081111561025957600080fd5b82018360208201111561026b57600080fd5b8035906020019184600183028401116401000000008311171561028d57600080fd5b91908080601f016020809104026020016040519081016040528093929190818152602001838380828437600081840152601f19601f820116905080830192505050505050509192919290803590602001906401000000008111156102f057600080fd5b82018360208201111561030257600080fd5b8035906020019184600183028401116401000000008311171561032457600080fd5b91908080601f016020809104026020016040519081016040528093929190818152602001838380828437600081840152601f19601f8201169050808301925050505050505091929192908035906020019064010000000081111561038757600080fd5b82018360208201111561039957600080fd5b803590602001918460018302840111640100000000831117156103bb57600080fd5b91908080601f016020809104026020016040519081016040528093929190818152602001838380828437600081840152601f19601f8201169050808301925050505050505091929192908035906020019064010000000081111561041e57600080fd5b82018360208201111561043057600080fd5b8035906020019184600183028401116401000000008311171561045257600080fd5b91908080601f016020809104026020016040519081016040528093929190818152602001838380828437600081840152601f19601f82011690508083019250505050505050919291929080359060200190929190803573ffffffffffffffffffffffffffffffffffffffff169060200190929190505050610966565b005b6104d8610b36565b6040518080602001806020018060200180602001806020018881526020018773ffffffffffffffffffffffffffffffffffffffff1673ffffffffffffffffffffffffffffffffffffffff16815260200186810386528d818151815260200191508051906020019080838360005b83811015610560578082015181840152602081019050610545565b50505050905090810190601f16801561058d5780820380516001836020036101000a031916815260200191505b5086810385528c818151815260200191508051906020019080838360005b838110156105c65780820151818401526020810190506105ab565b50505050905090810190601f1680156105f35780820380516001836020036101000a031916815260200191505b5086810384528b818151815260200191508051906020019080838360005b8381101561062c578082015181840152602081019050610611565b50505050905090810190601f1680156106595780820380516001836020036101000a031916815260200191505b5086810383528a818151815260200191508051906020019080838360005b83811015610692578082015181840152602081019050610677565b50505050905090810190601f1680156106bf5780820380516001836020036101000a031916815260200191505b50868103825289818151815260200191508051906020019080838360005b838110156106f85780820151818401526020810190506106dd565b50505050905090810190601f1680156107255780820380516001836020036101000a031916815260200191505b509c5050505050505050505050505060405180910390f35b610745611054565b6040518082815260200191505060405180910390f35b33600160006101000a81548173ffffffffffffffffffffffffffffffffffffffff021916908373ffffffffffffffffffffffffffffffffffffffff160217905550565b606080600260008473ffffffffffffffffffffffffffffffffffffffff1673ffffffffffffffffffffffffffffffffffffffff168152602001908152602001600020600001600260008573ffffffffffffffffffffffffffffffffffffffff1673ffffffffffffffffffffffffffffffffffffffff168152602001908152602001600020600101818054600181600116156101000203166002900480601f0160208091040260200160405190810160405280929190818152602001828054600181600116156101000203166002900480156108ba5780601f1061088f576101008083540402835291602001916108ba565b820191906000526020600020905b81548152906001019060200180831161089d57829003601f168201915b50505050509150808054600181600116156101000203166002900480601f0160208091040260200160405190810160405280929190818152602001828054600181600116156101000203166002900480156109565780601f1061092b57610100808354040283529160200191610956565b820191906000526020600020905b81548152906001019060200180831161093957829003601f168201915b5050505050905091509150915091565b600160009054906101000a900473ffffffffffffffffffffffffffffffffffffffff1673ffffffffffffffffffffffffffffffffffffffff163373ffffffffffffffffffffffffffffffffffffffff16146109c057600080fd5b6040518060e001604052808881526020018781526020018681526020018581526020018481526020018381526020018273ffffffffffffffffffffffffffffffffffffffff16815250600260008373ffffffffffffffffffffffffffffffffffffffff1673ffffffffffffffffffffffffffffffffffffffff1681526020019081526020016000206000820151816000019080519060200190610a6492919061105a565b506020820151816001019080519060200190610a8192919061105a565b506040820151816002019080519060200190610a9e92919061105a565b506060820151816003019080519060200190610abb92919061105a565b506080820151816004019080519060200190610ad892919061105a565b5060a0820151816005015560c08201518160060160006101000a81548173ffffffffffffffffffffffffffffffffffffffff021916908373ffffffffffffffffffffffffffffffffffffffff16021790555090505050505050505050565b6060806060806060600080600260003373ffffffffffffffffffffffffffffffffffffffff1673ffffffffffffffffffffffffffffffffffffffff168152602001908152602001600020600001600260003373ffffffffffffffffffffffffffffffffffffffff1673ffffffffffffffffffffffffffffffffffffffff168152602001908152602001600020600101600260003373ffffffffffffffffffffffffffffffffffffffff1673ffffffffffffffffffffffffffffffffffffffff168152602001908152602001600020600201600260003373ffffffffffffffffffffffffffffffffffffffff1673ffffffffffffffffffffffffffffffffffffffff168152602001908152602001600020600301600260003373ffffffffffffffffffffffffffffffffffffffff1673ffffffffffffffffffffffffffffffffffffffff168152602001908152602001600020600401600260003373ffffffffffffffffffffffffffffffffffffffff1673ffffffffffffffffffffffffffffffffffffffff16815260200190815260200160002060050154600260003373ffffffffffffffffffffffffffffffffffffffff1673ffffffffffffffffffffffffffffffffffffffff16815260200190815260200160002060060160009054906101000a900473ffffffffffffffffffffffffffffffffffffffff16868054600181600116156101000203166002900480601f016020809104026020016040519081016040528092919081815260200182805460018160011615610100020316600290048015610dc65780601f10610d9b57610100808354040283529160200191610dc6565b820191906000526020600020905b815481529060010190602001808311610da957829003601f168201915b50505050509650858054600181600116156101000203166002900480601f016020809104026020016040519081016040528092919081815260200182805460018160011615610100020316600290048015610e625780601f10610e3757610100808354040283529160200191610e62565b820191906000526020600020905b815481529060010190602001808311610e4557829003601f168201915b50505050509550848054600181600116156101000203166002900480601f016020809104026020016040519081016040528092919081815260200182805460018160011615610100020316600290048015610efe5780601f10610ed357610100808354040283529160200191610efe565b820191906000526020600020905b815481529060010190602001808311610ee157829003601f168201915b50505050509450838054600181600116156101000203166002900480601f016020809104026020016040519081016040528092919081815260200182805460018160011615610100020316600290048015610f9a5780601f10610f6f57610100808354040283529160200191610f9a565b820191906000526020600020905b815481529060010190602001808311610f7d57829003601f168201915b50505050509350828054600181600116156101000203166002900480601f0160208091040260200160405190810160405280929190818152602001828054600181600116156101000203166002900480156110365780601f1061100b57610100808354040283529160200191611036565b820191906000526020600020905b81548152906001019060200180831161101957829003601f168201915b50505050509250965096509650965096509650965090919293949596565b60005481565b828054600181600116156101000203166002900490600052602060002090601f016020900481019282601f1061109b57805160ff19168380011785556110c9565b828001600101855582156110c9579182015b828111156110c85782518255916020019190600101906110ad565b5b5090506110d691906110da565b5090565b6110fc91905b808211156110f85760008160009055506001016110e0565b5090565b9056fea26469706673582212209290d30244ce242e115f9b0cfedccff85295533e10ee62335026a389a92c0d8f64736f6c63430006020033",
  "source": "//Version de Solidity\npragma solidity >=0.4.25 <0.7.0;\n\n//import \"@openzeppelin/contracts/access/Ownable.sol\";\n//Contrato de Comercios\ncontract Comercios {\n    //Datos de Comercio\n    struct Comercio{\n        string nombre;\n        string rut;\n        string departamento;\n        string direccion;\n        string telefono;\n        uint256 numcuenta;\n        address comercioAddress;\n        //uint IDlength;\n    }\n\n    uint256 public totalComercios;\n\n    event Message(string msgs);\n\n    address owner;\n\n    function comercio() public{\n        owner = msg.sender;\n    }\n    \n    modifier onlyOwner() {\n        require(msg.sender == owner);\n        _;\n    }\n    mapping (address => Comercio) comercios;\n    //Funcion de Crear Comercio\n    function crearComercio(\n        string memory _nombre,\n        string memory _rut,\n        string memory _departamento,\n        string memory _direccion,\n        string memory _telefono,\n        uint256 _numcuenta,\n        address _comercioAddress\n    ) \n       onlyOwner public{\n            comercios[_comercioAddress] = Comercio(\n                _nombre,\n                _rut,\n                _departamento,\n                _direccion,\n                _telefono,\n                _numcuenta,\n                _comercioAddress);\n        }\n    //Funcion Mostrar Informacion del Ultimo Comercio Creado\n    function myInfo() public view returns (\n        string memory,\n        string memory,\n        string memory,\n        string memory,\n        string memory,\n        uint,\n        address) {\n        return (\n        comercios[msg.sender].nombre,\n        comercios[msg.sender].rut,\n        comercios[msg.sender].departamento,\n        comercios[msg.sender].direccion,\n        comercios[msg.sender].telefono,\n        comercios[msg.sender].numcuenta,\n        comercios[msg.sender].comercioAddress);\n    }\n    \n    \n    //Funcion para consultar Comercion, Imput address\n    function existComercio(address _comercioaddres) public view returns(\n        string memory _nombre, \n        string memory _rut\n    ){\n            return(\n                comercios[_comercioaddres].nombre,\n                comercios[_comercioaddres].rut\n            );\n}\n\n \n\n\n}",
  "sourcePath": "/Users/quennito/Documents/BlockChain/TSU/contracts/Comercios.sol",
  "compiler": {
    "name": "solc",
    "version": "0.6.2+commit.bacdbe57.Emscripten.clang"
  },
  "schemaVersion": "3.3.1",
  "updatedAt": "2020-11-04T03:39:14.415Z",
  "networkType": "ethereum",
  "devdoc": {
    "methods": {}
  },
  "userdoc": {
    "methods": {}
  }
}